:100000000000042079030000610300006303000086
:1000100065030000670300006903000000000000A2
:100020000000000000000000000000006B03000062
:100030006D030000000000006F030000710300006A
:100040007303000073030000450800007303000001
:1000500073030000730300007303000073030000C8
:1000600073030000730300007303000073030000B8
:1000700073030000730300007303000073030000A8
:100080007303000073030000730300007303000098
:100090007303000073030000730300007303000088
:1000A0007303000073030000730300007303000078
:1000B0007303000073030000000000000000000054
:1000C0007303000073030000730300007303000058
:1000D0007303000073030000730300007303000048
:1000E00073030000730300007303000000000000AE
:1000F0000000000073030000000000007303000014
:1001000000000000000000000000000000000000EF
:1001100000000000000000000000000000000000DF
:1001200000000000000000000000000000000000CF
:1001300000000000000000000000000000000000BF
:1001400000000000000000000000000000000000AF
:10015000000000000000000000000000000000009F
:10016000000000000000000000000000000000008F
:10017000000000000000000000000000000000007F
:10018000000000000000000000000000000000006F
:10019000000000000000000000000000000000005F
:1001A000000000000000000000000000000000004F
:1001B000000000000000000000000000000000003F
:1001C000000000000000000000000000000000002F
:1001D000000000000000000000000000000000001F
:1001E000000000000000000000000000000000000F
:1001F00000000000000000000000000000000000FF
:10020000364937480A1A02D0072291438D463549AC
:1002100035480A1A06D00722914381F30988022241
:1002200082F3148831483249324A00F045F83248A6
:100230003249334A00F040F832483349334A00F03B
:100240003BF833483349344A00F036F833483449F0
:10025000344A00F031F834483449354A00F02CF87B
:1002600034483549354A00F027F8354835490022E9
:1002700000F02DF834483549002200F028F83448C1
:100280003449091A082903DB0022026004300160A6
:10029000314A90471F482049884205D002680430FF
:1002A00003B4904703BCF7E700208646EC460020E5
:1002B00000212A4A9047FEE7884207D0521A05D00B
:1002C000037801300B700131013AF9D1704788424F
:1002D00002D002700130FAE77047000000000420ED
:1002E00000E0032000000420000004207020000033
:1002F0000000002020000020D8030000D8030000E8
:10030000341F0000702000000000002000000020CA
:10031000341F0000341F0000341F0000341F000091
:10032000341F0000341F0000341F0000341F000081
:100330006F200000902000002000002020000020FE
:1003400020000020E0030020E0030020E003002064
:10035000E0030020E0230020A1030000F9110000C9
:10036000FEE7FEE7FEE7FEE7FEE7FEE7FEE7FEE765
:10037000FEE7FEE7704700BF1048804710484FF087
:100380000701884385460F4880470F48016841F4BC
:1003900070010160BFF34F8FBFF36F8FFFF730BF66
:1003A0000A480B490B4A884207D0521A05D00378F5
:1003B00001300B700131013AF9D17047750300002B
:1003C00000000420591C000088ED00E0341F0000EC
:0803D0000000002000000020E5
:1003D8001FB50021039001AA44F20100CDE90111E3
:1003E80000F004F805B05DF804FB000072B6094B94
:1003F8001B68DB0700D500BEBFF34F8F0649074BCC
:10040800CA6802F4E0621343CB60BFF34F8F00BFAA
:10041800FDE700BFF0ED00E000ED00E00400FA05A4
:1004280049B152B1531E1A4007D1826001608380DE
:10043800C260104670470E2070470920704710B5FB
:100448008468C2688388121B934208D3C268134029
:100458000268D154C3680133C360002010BD042072
:10046800FCE78268C3689A420AD08268838813408E
:100478000268D35C0B708368013383600020704787
:10048800052070470648074A03780749D35C0122CC
:1004980013B1043000F036BE0C3000F005BC00BFCC
:1004A8000000002060000020480000200648074A9D
:1004B80003780749D35C012213B1043000F0D2BDA0
:1004C8000C3000F09BBB00BF000000206000002043
:1004D8004900002037B50578012D04D035D3022D09
:1004E80028D003B030BD43681F4C19782046FFF769
:1004F800A6FF78B11D4B01908DF800501B68684627
:100508009847A168E368A2885B1A9A420ED3FFF75E
:10051800B9FFE6E7A268E3689A42F2D002AB134A51
:1005280003F8080D126818469047EAE7104B0122B5
:100538001A70D6E7C36801938DF80050FFF7A2FF41
:100548000A4B1B6868469847CBE70A490A48FFF7F1
:1005580088FF10B9FFF7AAFFC3E702A8032300F832
:10056800083D024B1B68EEE7240000202000002015
:10057800340000204900002038000020F0B51F4654
:10058800234B89B006461A600C4600293DD08A885C
:1005980020480968FFF744FF002834D1A289A168E0
:1005A8001D48FFF73DFF00282DD11C4D0FCD6C468F
:1005B8000FC495E80F0084E80F0073690693337C35
:1005C800174A18488DF81C70003318BF01238DF89E
:1005D8001430737C002B14BF0E2300238DF81530C4
:1005E800F3680293B36803933368019369467368A9
:1005F800009300F0E5F830B90B4B187033680133FD
:1006080001D0FFF73FFF09B0F0BD0720FBE700BFAF
:10061800200000202400002038000020341F0000A3
:10062800DD040000000000203400002070B5084CF4
:10063800014608482678FFF714FF054636B100231F
:100648002370FFF71FFF08B1FFF7C2FE284670BDF1
:10065800340000202400002010B501460E48FFF7A2
:10066800EEFE0446A8B90D480D4A0378D35C63B181
:10067800043000F03BFD60B90A490748FFF7F1FE76
:1006880038B9BDE81040FFF711BF0C3000F000FB8F
:10069800F1E7204610BD00BF380000200000002010
:1006A800600000204900002072B6024A1368013336
:1006B800136070474C000020034A1368013B136025
:1006C80003B962B6704700BF4C000020FFF7ECBFCB
:1006D800FFF7F2BF074B1B5C1F2B86BF03F01F03FE
:1006E80005494FF0A041012202FA03F3C1F8083589
:1006F800704700BF541F00000003005008B50020D9
:10070800FFF7E8FF0120FFF7E5FF0220FFF7E2FF10
:100718000320BDE80840FFF7DDBFC20710B5044657
:100728000CD54FF0A0430322C3F83427C3F8382769
:10073800C3F83C27C3F84027FFF7E0FFA3070AD513
:100748004FF0A0430C22C3F82C27C3F83027C3F876
:100758006027C3F8642710BD1FB503788DF80030F3
:100768004368019383688DF80830C3680393054A8A
:10077800054B684653F8213052F82110984705B0C8
:100788005DF804FB50000020580000201FB50378D6
:100798008DF800304368019383688DF80830C3688A
:1007A8000393054A054B684653F8213052F8211047
:1007B800984705B05DF804FB500000205800002061
:1007C800F0B5194B0678DFF870E043F82620174B90
:1007D80094460A6943F826204B7F0EF806300C46EB
:1007E80007460FCC89B06D460FC594E80F0085E821
:1007F8000F001EF80630049653B1BCF1000F0C4AE6
:10080800694608BF0022381D00F050FB09B0F0BD52
:10081800BCF1000F074A694608BF002207F10C0027
:1008280000F018F9F2E700BF58000020500000203F
:10083800610700009507000060000020014B1B685D
:10084800184700BF6400002038B50A4B98420D468F
:100858000CD10020FFF73AFF074B1C7914B901228D
:100868001D601A710020FFF733FF0CB9002038BD56
:100878001120FCE7002000406400002000234350C2
:1008880082B043580193019B02B070470A4610B5E5
:100898004FF48E71FFF7F2FF136A9168C95C136A0F
:1008A80001331362C0F81C1510BD024608B54FF499
:1008B80092710068FFF7E2FF4FF484711068FFF748
:1008C800DDFF136801221A6008BD8B690A4610B55E
:1008D8004FF4847123B9FFF7D1FFD0F8183510BD54
:1008E800FFF7CCFF536AD168D0F81805C854536A8B
:1008F80001335362F3E700001FB501238DF8003080
:10090800044BCDE90110D3E900126846904705B0C1
:100918005DF804FB6C00002030B54C4AD2F8043373
:1009280013F4007F85B015464FD0D2F82431002B40
:100938004BD04FF492711046FFF7A0FF4FF40173AC
:10094800C2F80833424B93F8291009B901215160C4
:100958003E4902228DF80020D1F88024C1F8802475
:1009680003929A690292DA6801920022C3E9062288
:100978006846D3E9001290473448D0F81C315BB17F
:1009880033490A6A4B699A420A464BD291F8283091
:10099800002B47D1FFF77AFF2C4AD2F8443193B1A4
:1009A8004FF4A2711046FFF769FF294B93F82910FD
:1009B80009B1012111609A692AB100229A61586A25
:1009C800D968FFF799FF05B030BDD5F804335B0748
:1009D800D2D5D5F80831002BCED01D4C1B48214666
:1009E800FFF773FF636AA2699A422346C4D1E2699A
:1009F800E1684AB12369E3600023606AA261E361A8
:100A08006362FFF779FFB7E794F829200AB9012252
:100A18006A600E4A4FF40170C2F8080300229A6116
:100A2800586AEEE74FF48E710848FFF727FF5169BF
:100A38000029B1D00023029191688DF8003001910E
:100A480053616846D2E900139847A5E700200040A3
:100A58006C0000202DE9F843624F047991462C225E
:100A680002FB0472064692F82A200D46002A40F03E
:100A7800B3805D490068FFF7E7FE8046002840F034
:100A8800AE8029684A1C10D01F2987BF01F01F03B8
:100A9800564A0B464FF0A0420120984003F5E073F8
:100AA800C2F80805032042F823006868431C0DD0EB
:100AB8001F288BBF00F01F0303464C4A4FF0A0428B
:100AC80003F5E0734FF0000C42F823C03368AA69BD
:100AD80095F814C0C3F824256A7DBCF1010F4CEACF
:100AE8000202C3F86C25C3F81405C3F80C152BD102
:100AF800A968481C0DD01F298BBF01F01F020A46A8
:100B08003A484FF0A04002F5E0724FF0000C40F870
:100B180022C0E868421C13D01F2887BF00F01F0CB2
:100B2800324A84464FF0A0424FF0010E0EFA0CFEF6
:100B38000CF5E07CC2F808E54FF0030E42F82CE013
:100B4800C3F80805C3F810152C236343FA18C2F834
:100B580004902A69FA50B9F1000F2AD04FF48E7127
:100B680030682D7FFFF78AFE30684FF4A271FFF7D7
:100B780085FE32681E4BC2F80433120B51B20029AD
:100B8800A8BF01F160404FEA4513BABF194802F007
:100B98000F0500F56140DBB2B4BF435580F8003360
:100BA80002F01F02012303FA02F24909124B43F82B
:100BB800212033680422C3F800252C2303FB047387
:100BC8000022C3E9062283F829205A61012283F80A
:100BD8002A204046BDE8F8834FF00808F9E74FF0AF
:100BE8001108F6E76C0000202109000000030050FE
:100BF8008000020014ED00E000E100E02DE9F84378
:100C0800224F06794FF02C0909FB06748046656966
:100C1800002D37D16261A16025624FF48E710068A2
:100C280084F82850FFF72AFED8F8000001238360D3
:100C38002146FFF72BFE6368A1462BBBD8F800506E
:100C4800226A63699A4212D3D8F80030D3F81C217B
:100C5800002AFBD00122DA6000202C2303FB067651
:100C680000237361BDE8F88394F8283043B9D5F8B8
:100C78001C31002BF8D049462846FFF707FEDFE76E
:100C88000F20EAE71120EDE72846EBE76C0000208B
:100C98000379044A2C2101FB03235869003018BF4B
:100CA800012070476C0000202DE9F843384E057983
:100CB8002C2303FB056307465C6824B103684FF4E3
:100CC8000170C3F808032C2303FB0563986950B12E
:100CD800D86900283ED024B13B684FF40172C3F8AC
:100CE8000423112034E09A61D9605862D8612C231A
:100CF80003FB056393F829301BB910B93846FFF791
:100D0800D4FD4FF02C0909FB05683868D8F8043081
:100D1800002B34D14FF4A271FFF7B0FDC1463868FB
:100D2800D0F82431D0F80821D0F84441B2B90CB930
:100D3800002BF4D02C2202FB05650022AA611BBB04
:100D480024BB95F829103B680122B1B11A60002034
:100D5800BDE8F8831961DA610120C8E7002BE9D101
:100D6800002CE7D14946FFF7B0FDD8F82430D8F871
:100D780018209A42D3D82346DCE75A60E7E74FF4B5
:100D88000173C0F80433E2E70320E1E70F20DFE74F
:100D98006C0000200023435082B043580193019B0C
:100DA80002B070471FB501238DF80030044BCDE920
:100DB8000110D3E900126846904705B05DF804FBBE
:100DC800980000207FB5374AD2F82461002E48D019
:100DD80010464FF49271FFF7DDFF02238DF80030C3
:100DE800D2F88034C2F880340393D2F83C350293A9
:100DF8002D4BDA6801920022C3E906226846D3E93E
:100E080000129047274AD2F844317BB14FF4A271BF
:100E18001046FFF7BFFF244B996939B10021C3E998
:100E28000611D968D2F83C05FFF7BCFF1D4AD2F875
:100E38002031A3B14FF490711046FFF7ABFF1A4B66
:100E4800596961B1D2F84C150291002299688DF860
:100E5800002001915A616846D3E90012904704B016
:100E680070BDD2F81031002BCCD04FF488711046E9
:100E7800FFF790FF0C4BD2F83C0599698842C1D125
:100E8800DC69D96864B1D2F8005225F02005C2F8AF
:100E980000521A699C61DA60DE61FFF783FFB1E7EF
:100EA8009C61FAE700200040980000202DE9F843F3
:100EB800664F06799146242202FB0672044692F890
:100EC80020200D46002A40F0BB8061490068FFF7EA
:100ED800BBFC8046002840F0B6802868421C10D031
:100EE8001F2887BF00F01F035A4A03464FF0A0424D
:100EF8000121994003F5E073C2F80815032142F86F
:100F0800231069684B1C0DD01F298BBF01F01F03EC
:100F18000B46504A4FF0A04203F5E0734FF0000C27
:100F280042F823C02368AA6995F814C0C3F8242599
:100F38006A7DBCF1010F4CEA0202C3F86C25C3F8C4
:100F48000C05C3F814152BD1A968481C0DD01F290E
:100F58008BBF01F01F020A463E484FF0A04002F541
:100F6800E0724FF0000C40F822C0E868421C13D031
:100F78001F2887BF00F01F0C364A84464FF0A04256
:100F88004FF0010E0EFA0CFE0CF5E07CC2F808E5F5
:100F98004FF0030E42F82CE0C3F80805C3F810150B
:100FA80024237343FA18C2F804902A69FA50B9F155
:100FB800000F34D04FF4887120682D7FFFF7EAFEC8
:100FC8004FF490712068FFF7E5FE4FF492712068A6
:100FD800FFF7E0FE20684FF4A271FFF7DBFE2268FE
:100FE8001D4BC2F80433120B51B20029A8BF01F1FE
:100FF80060404FEA4513BABF184802F00F0500F5E4
:101008006140DBB2B4BF435580F8003302F01F02E1
:10101800012303FA02F24909114B43F821202368FE
:101028000822C3F80025242303FB06730022C3E922
:1010380006225A61012283F820204046BDE8F88341
:101048004FF00808F9E74FF01108F6E7980000207C
:10105800CD0D0000000300501003020014ED00E065
:1010680000E100E001F06043B3F1005F2DE9F041D9
:10107800074632D11C4B0679242505FB06359846D0
:101088006C6964BB6A61A96000684FF49071FFF7EE
:1010980081FE4FF4AC713868FFF77CFE3B686A69E3
:1010A800A968C3F84415C3F8482501229A606A68FC
:1010B800BAB9D3F82011D3F8582149B9002AF8D081
:1010C8000F20242303FB068600237361BDE8F0810B
:1010D800002A14BF0F200020F3E71020F6E71120A4
:1010E800F4E72046F2E700BF980000200379044A9D
:1010F800242101FB03235869003018BF01207047E1
:1011080098000020F8B501F06043B3F1005F044691
:101118000F465ED10379304D242101FB0351486805
:1011280020B121684FF40476C1F80863242101FB3B
:1011380003539E6956B1D969002939D020B1236873
:101148004FF40472C3F80423112030E09A61DF6081
:10115800DE614FF488712068FFF71CFE4FF4A2711E
:101168002068FFF717FE2368C3F83475C3F83825DD
:1011780016BB01221A602279242101FB0251496819
:1011880009BBD3F81041D3F84411D3F8240114B99A
:1011980009B90028F5D0242303FB025500239842FF
:1011A80014BF032018469942AB6118BF0F20F8BD41
:1011B8001F61DA610126CCE7D3F8002242F0200251
:1011C800C3F80022D7E74FF40472C3F804230020C1
:1011D800EDE71020EBE700BF980000200378022B12
:1011E80002D14068FFF7F4B8012BFAD0704700002D
:1011F800F0B52E4D8BB00120FFF78FFA0FCD04AC60
:101208000FC495E803002A4B2A4A00934FF48073D1
:1012180084E80300CDE902230193274A072369469E
:1012280004A8FFF7ABF908B1FFF7D2F800F050F9BE
:101238000646B0BB0546044600F0BCF907466846BA
:10124800FFF7F4F90028F7D19DF800301CB91D020A
:101258003E460124F0E706F11502BA4202D21D0209
:101268003E46E9E71D4305F00303C5F38502C5F3D0
:101278000521C5F38F3000F0EFFA04A800F0AEFAAC
:1012880004460028D8D09DF81100FFF7E5F900289A
:10129800F9D19DF81000FFF7DFF90028F9D10446CD
:1012A800CAE74FF0FF300BB0F0BD00BF581F000079
:1012B800BC000020BC010020E51100000C4B0322FB
:1012C800C3F80825A3F5F0330022C3F80022C3F8B9
:1012D800102101221A61D3F81021002AFBD0002224
:1012E800C3F810215A601A60024B1A80704700BF79
:1012F80000F00140D803002008B500F047FC084B77
:1013080001210022C3F80815C3F81025C3F81425D5
:10131800A3F5B0331961FFF7D1FF024B197008BD6F
:1013280000F00140DA03002038B51E4C1E4D21782C
:10133800286800F035FC20B11C4B01221A800420DB
:1013480038BDFFF7BBFF1A4B2A78C3F80C25217864
:10135800C3F81015D3F8242522F0FF02C3F824257A
:10136800D3F8242542F07102C3F82425114AC3F8A2
:101378001C250122C3F8302540F20312C3F82C05BE
:10138800C3F834250C4A127803391206012988BF9C
:1013980042F0C14242F48472C3F81425074AC3F8E4
:1013A8001825CDE714000020DC030020C40200202B
:1013B8000010004000294176C7020020FF0003000A
:1013C8000F49104AB0B10B6823F0004323F0FF0324
:1013D80043F0004343F07D030B60136823F00043A0
:1013E80023F0700343F0004343F060031360064B9F
:1013F80018707047054B0B60136823F00043F5E73E
:101408003C1700407C170040DB03002034300040CC
:1014180038B5044600F0BAFB1A4B40F25B62C3F8D9
:101428003825194AC3F83C25184A12685200023276
:10143800C3F80825164AC3F804250022C3F800217A
:101448000322C3F800221D46124A54B1137813B17F
:101458000120FFF7B5FF0023C5F80C3101236B60AD
:1014680038BD0D490978C3F80C151378002BF7D04F
:101478000A4B0122DA605A60C3F84041C3F844417C
:10148800EEE700BF0010004055555500D40300207A
:10149800D0020020BC020020DC03002000900040A5
:1014A800024A0123136042F8083C7047401000408C
:1014B800064B0022C3F81C2101225A61D3F81C21D3
:1014C800002AFBD0D3F84805C0B27047001000408E
:1014D80038B54FF080430022C3F8002101221A607A
:1014E800D3F80021002AFBD0294B1B6800220124D5
:1014F8004FF480315C600425DC60C3F80425C3F830
:101508004021C3F84421C3F84821C3F84C21C3F84B
:10151800041340F6C411C3F80042C3F81055C3F8C9
:1015280040154FF48271C3F844151C60194B1A60BA
:10153800194B40F2E2415C60DC60C3F80425C3F853
:101548004021C3F84421C3F84821C3F84C21C3F80B
:101558004015C3F84425114A4FF40071C2F88011B0
:101568000722C3F81025FFF7DFFE70B90C4B0D4AB0
:1015780018700D4B1C700D4B1860136943F0100365
:1015880013610B4BC3F8404538BD2846FCE700BF44
:1015980018000020C00200200090004000E100E098
:1015A800C602002000ED00E0DA030020C802002097
:1015B80000E00140794A13692DE9F041784EDFF8DF
:1015C800188243F0100313613746764C3378042BA6
:1015D8000BD1D4F80421012A07D10021C4F8041141
:1015E8007149097809B171490A61D4F80C21002AB6
:1015F80042D06F4A00210220042BC4F80C11C2F813
:10160800800139D1684B1B78012262606BB1674B4E
:1016180040F2E240C3F840053F20C3F84405DA60D1
:10162800C3F84011C3F844111A60D4F80034012BF0
:101638001CD1604A604912780B78D01E012803F04B
:101648000F030D4601D8022B10D8053A012A01D8FC
:10165800032B0BD84A78002B65D15849584800F01D
:10166800D3FB18B9574A13880133138040F201128B
:101678000021514800F027FC3B78042B0CD1D4F80A
:101688000031012B08D10022C4F80021464A127803
:1016980012B1464AD36013604B4B1B68D3F8402104
:1016A800002A55D00022C3F84021404BD3F84031DE
:1016B800012B1DD1FFF7FCFE444B1B78002B60D09B
:1016C8005F2802D90020FFF77BFEFFF7E9FE374BC2
:1016D80040F2E242C3F84025002101225A60DA6054
:1016E800C3F840111A60324B4FF40072C3F88021DE
:1016F8002E4DD5F84431002B3FF468AFFFF7D8FEE4
:101708005E288CBF00200120FFF75AFEFFF7C8FEB5
:101718000023C5F84435C5F84431254B4FF4007211
:10172800C3F8802151E7012B0ED0022B0ED0032BDA
:101738009CD1FF210023D8B2824293D90133E81803
:1017480040788842F7D091E70F21F3E75521F1E778
:10175800D3F844110029A8D0C3F844211C4B93F9AD
:10176800003001215A0903F01F0301FA03F3603224
:101778000F4941F82230174B186801301860BDE84E
:10178800F081D8F800309AB20F2A04D9B3F5003F97
:1017980001D2012097E75E28FBD996E700ED00E02B
:1017A800DA03002000100040BC0200200090004036
:1017B80000E100E014000020D0020020701F0000AB
:1017C800D2020020D803002018000020DB030020EC
:1017D80015000020C002002074150040044B0021B1
:1017E8001A781970034B1B8803601046704700BFB6
:1017F800C6020020C40200200B4B1B7810F0300FEB
:1018080010B544B218BF64F03F04012B01D9002081
:1018180010BD064B2046197800F0C2F90028F6D111
:10182800034B01201C60F3E7DA03002014000020BA
:10183800DC030020054B1B78012B024603D8044922
:10184800044800F0C9B90020704700BFDA0300203F
:1018580015000020180000209C46B34B2DE9F74FD7
:101868008146B24EB2480D4614461A680560307873
:1018780004F03F0102F0C0020A430338AD491A6080
:101888000128C1F800C0984604D8BCF1030F04BF72
:10189800FF230B60A84BA94FDFF8D0B201201870C6
:1018A80038780023ABF80030DA46002800F06B8166
:1018B800B9F1000F40F08A80FFF71EFDA5B924B1E9
:1018C8000123AAF8003004240AE0032333709C4B58
:1018D8009C4AC8F800401C70136823F0004313604A
:1018E800204603B0BDE8F08F012D06D1032CE7D8C0
:1018F800A401C8F800400024F2E7022D49D1013CB8
:10190800032CDDD8DFE804F002192C4303233370DD
:101918008B4B8C4A00241C70136823F0004313601F
:101928002046FFF74DFD884B01221A61874B1C703A
:1019380003B0BDE8F04FFFF7F7BC04233370804BCA
:10194800804A01241C70136823F0004313600020B0
:10195800FFF736FD7C4B1C617C4B00221A70E7E7D1
:1019680005233370764B03221A70764A136823F0E6
:10197800004323F47F4343F0004343F4444313609C
:10198800734B1B68002BD3D1704B0122E6E706236B
:10199800E7E7032D02D1012CADD991E7042D05D13C
:1019A800002C8DD10623ABF8003099E7052D87D19F
:1019B800032C85D8DFE804F0020702074FF4FF7311
:1019C800AAF8003097E744F29023F9E7B9F1030F3A
:1019D80012D1012804D10123AAF8003002247FE79C
:1019E8005C4A019312886FEA42426FEA5242ABF8AE
:1019F8000020FFF781FC7EE70128ECD1BCF1030F42
:101A080005D0272D03D9ABF80000044668E7514BF1
:101A18004FF0000BB9F1010FA3F800B00BD140F261
:101A2800011259464C4800F04EFA4846FFF7F0FCC0
:101A380004233B705FE7B9F1020F7FF45CAF0B68DA
:101A48004548022B42704DD009D8A3B1012B7FF431
:101A580037AF00F8023B0F2100F035FA10E0032BF6
:101A680044D0FF2B7FF42CAF032C3FF644AFDFE8C4
:101A780004F042424E5500F8023B384900F0FAF9AA
:101A88000020FFF7C5FC3278354BD8F800401968BC
:101A9800042A47D0032A6BD0052A6BD0062A14BF24
:101AA80000204FF4E770052A4FEAC40365D1A3016B
:101AB8000344042A08BF5B0840F27122F9339A42B2
:101AC80002F271205DD3274BC1F84025264A01F563
:101AD800A071C3F81015C3F814250122C3F8042512
:101AE8000223A6E700F8029B5521B5E7042300F876
:101AF800023BFF21B0E70020FFF78AFC00F048F81E
:101B0800194B0122C3F800221A60032391E72846E3
:101B1800FFF772FE00287FF4EEAED1E62846FFF705
:101B280089FEF7E75820BEE7C8020020140000200D
:101B3800D4030020CC020020C6020020DA030020D3
:101B4800C70200204017004000900040BC0200205F
:101B580088170040D8030020D0020020701F000022
:101B68001800002000F0014000100040C4020020CE
:101B7800502098E74FF4347095E7062A08BF2301F0
:101B880096E702469BE70524AAE600BF70470000D7
:101B9800024B4FF40072C3F8502670470010004003
:101BA800C3B29A1E062A0CD95BB1E23B1A2B04D8A1
:101BB800084A22FA03F3DB0703D400F0DF00D82831
:101BC80005D10339032994BF00200420704704205D
:101BD800704700BF014404042AB9104B036008236E
:101BE8000B7001207047012A03D10D4B03600923B4
:101BF800F6E7022A03D10B4B03600A23F0E7032A16
:101C080003D1094B03601A23EAE7042A03D1074BDF
:101C180003601B23E4E70020704700BF00800040FA
:101C28000090004000A0004000A0014000B001402A
:101C3800054B1B68082B01BF044B1868B0FA80F0ED
:101C4800400918BF0020704730010010340100100F
:101C580008B54FF080430022C3F80C21C3F81021C7
:101C6800C3F838254FF0805203F54043D2F80414E6
:101C7800C3F82015D2F80814C3F82415D2F80C14A8
:101C8800C3F82815D2F81014C3F82C15D2F8141478
:101C9800C3F83015D2F81814C3F83415D2F81C1448
:101CA800C3F84015D2F82014C3F84415D2F8241408
:101CB800C3F84815D2F82814C3F84C15D2F82C14D8
:101CC800C3F85015D2F83014C3F85415D2F83414A8
:101CD800C3F86015D2F83814C3F86415D2F83C1468
:101CE800C3F86815D2F84014C3F86C15D2F8442428
:101CF800C3F87025FFF79CFF10B1384B384A1A60BB
:101D0800FFF796FF18B1374BFB22C3F81825FFF7EA
:101D18008FFF48B13449354B0A681B6822F00F021F
:101D280003F00F0313430B60FFF782FF18B1304B2A
:101D38004FF400721A604FF08043D3F80024D207A2
:101D480044BF6FF00102C3F800242A4AD2F8883051
:101D580043F47003C2F88830BFF34F8FBFF36F8F1F
:101D68004FF01023D3F80022002A03DBD3F8043203
:101D7800002B2FDA204B0122C3F80425D3F80024C6
:101D8800002AFBD04FF010221221C2F80012D3F81B
:101D98000024002AFBD04FF010231222C3F804229B
:101DA800154B1A46D3F800140029FBD00021C3F8BC
:101DB8000415D2F80034002BFBD0BFF34F8F0D4928
:101DC8000E4BCA6802F4E0621343CB60BFF34F8F37
:101DD80000BFFDE70A4B0B4A1A6008BD8C5600404D
:101DE8004881030000F00040E40E00405802001053
:101DF8004096024000ED00E000E001400400FA05D2
:101E08001C0000200090D00392B370B4134640EA3F
:101E1800010212F0030F17D05A1E10D004780B7865
:101E28009C420CD1431C4C1C024418462146934248
:101E380005D00133013406780D78AE42F5D000782C
:101E48000B78C01A70BC70470F2BE5D904680A6874
:101E58009442E1D1041D0A1D20461146043B042B7F
:101E6800DAD90434043206680D68AE42F4D0D3E7F8
:101E780000207047844640EA010313F0030F18D18D
:101E88008446202A0BD32DE9F007B1E8F807A0E82B
:101E9800F807A2F12002202AF7D2BDE8F007042AA9
:101EA80007D351F8043B40F8043BA2F10402042A8A
:101EB800F7D2002A05D011F8013B00F8013B013A9E
:101EC800F9D1604670478446002A2DD010F0030FE0
:101ED80004D000F8011B013A26D0F7E7C9B241EA5D
:101EE800012141EA0141202A12D3A2F120022DE961
:101EF800F0030B460C460D460E460F4688468946AB
:101F0800A0E8FA03203AFBD2BDE8F00320320BD058
:101F1800042A05D340F8041B043A05D0042AF9D250
:0C1F280000F8011B013AFBD16046704735
:101F3400FFFFFFFFFFFFFFFFFFFFFFFFFFFFFFFFAD
:101F440000000000000000000000D60106010000AF
:101F54000D0E0F1016000000180000000500000010
:101F6400070000000000000000A04E00FFC1FBE8D5
:101F74004C90728BE7B3518963AB232302841872AC
:101F8400AA612F3B51A8E53749FBC9CA0C18532C49
:101F9400FD45E39AE6F15DB0B61BB4BE2A50EAE90A
:101FA4000E9C4B5E5724CCA1B759B887FFE07D74D3
:101FB4002648B9C5F3D9A8C4B1D5911101420C3949
:101FC400D5B0979D28D4F29BA4FD6465068C299610
:101FD400FEA2714DF3F82E58DB0D5A5F1528F574E7
:101FE40007CE25AF2B12E6D0DB2CDCC37FF03E3AC4
:101FF40013A4DCE2F96C54E2D8EAC8880021869C78
:102004006AD8CB4E146AF94DD27EB23203C6144B51
:102014007FD1B8A6797C17ACED06ADAF0A947ABA35
:1020240003E792D7150973E86D16EEE13F781F9D1B
:1020340009526EF17C362A716C7564448010434EEB
:1020440035EC65270AB5FC26693F599901638AA5D1
:10205400BF685CD33CBE0BD67683D657054A3DDDBC
:0B2064008173C9EB8A8439F4360BF756
:1020700000000000002000400000000000200040A0
:102080000000000003080000008000400090D00322
:04000003000003797D
:00000001FF
